:020000040000FA
:100000000C94CB010C9435190C940A190C94DF183C
:100010000C94B4180C9489180C945E180C94331832
:100020000C9408180C94FC010C94FC010C94FC0139
:100030000C94FC010C94FC010C94FC010C94FC014C
:100040000C94FC010C94FC010C94FC010C94FC013C
:100050000C94841A0C94FC010C94FC010C94BE17B3
:100060000C94FC010C9488170C945E170C94FC0102
:100070000C94FC010C94FC010C94FC010C94FC010C
:100080000C94FC010C94FC010C94FC010C94FC01FC
:100090000C94FC010C94FC010C94FC010C94601970
:1000A0000C94FC010C94FC010C94FC010C94FC01DC
:1000B0000C94FC010C94FC010C94FC010C94FC01CC
:1000C0000C94FC010C94FC010C94FC010C94FC01BC
:1000D0000C94FC010C94FC010C94FC010C94FC01AC
:1000E0000C94FC010C94B3030C94B6020C949A0883
:1000F0000C94CE150C945C020C949F050C94380D56
:100100000C9472030C949F030C943C0A0C94B5124B
:100110000C9403030C9485050C948D030C94DB154F
:100120000C94D01A0C94A60B0C94ED160C94B703F7
:100130000C9497030C94A5030C9473050C94E3069C
:100140000C9470020C94F9090C94F3120C940C05A5
:100150000C947E140C9407130C9484030C94B10F2C
:100160000C94720A0C9476120C94B2030C949B03B8
:100170000C949A130C94D60A0C94E1100C94A903D5
:100180000C9409130C9478030C94940A0C940116A3
:100190000C949A070C9423130C94AF0A0C947505D5
:1001A0000C94810E0C9487030C9420020C947C0315
:1001B0000C9454120C9476050C94E2060C9493085B
:1001C0000C9496120C9474050C9480030C9485087E
:1001D0000C942C100C94CC050C947E020C94DE0E26
:1001E0000C94000B0C941E0A0C94690B0C9436139F
:1001F0000C9491030C944D020C94EC150C949805FE
:100200000C948C080C94AD03534C4156455F4E4FF3
:10021000545F50524553454E54004241445F53543D
:10022000415445004552524F525F4241445F43485A
:10023000414E4E454C004552524F525F4241445F41
:10024000534C41564500323032332D30342D313449
:1002500000517550204D756C7469706C65786572CD
:100260002056322E32200051024602360224021A53
:1002700002080200002100240027002A002D00307F
:1002800000330001010000040107010A01000022FF
:1002900000250028002B002E003100340002010050
:1002A00000050108010B01000020002300260029A1
:1002B000002C002F0032000001000003010601099C
:1002C0000105050505070508080808020202020ADB
:1002D0000A080804040404010101010101010103E9
:1002E00003030303030303040707070C0C0C0C0CA4
:1002F0000C0C0C0202020206060606060606060B97
:100300000B0B0B0B0B0B0B0102102020080810200D
:100310004010204080020102010804020101020491
:100320000810204080804020100804020180040250
:1003300001804020100804020108040201010204A7
:100340000810204080010204081020408000000AAC
:100350000B02090C0D0E0807030401000000000049
:10036000000000000000000000000000000000008D
:10037000000000000000000000121110000000004A
:10038000000000000000000000000000000000006D
:1003900000000000D01A11241FBECFEFD1E2DEBF53
:1003A000CDBF00E00CBF29E0ACE6B5E001C01D9276
:1003B000A333B207E1F715E0A0E0B2E0ECEBF3E520
:1003C00000E00BBF02C007900D92AC36B107D9F721
:1003D00011E0CBECD1E000E006C021970109802FAD
:1003E000FE010E94D124CA3CD10780E00807A9F78A
:1003F0000E94801E0C94DC290C940000FC011582E4
:1004000014822091710830917208232B71F490931B
:100410007408809373089093720880937108809198
:1004200075088F5F809375080895E0917308F091C7
:100430007408958384839093740880937308EFCF36
:10044000AF92BF92CF92DF92EF92FF920F931F93E2
:10045000CF93DF936C017B018B01040F151FEB0120
:100460005E01AE18BF08C017D10759F06991D601D7
:10047000ED91FC910190F081E02DC6011995892B39
:1004800079F7C501DF91CF911F910F91FF90EF9008
:10049000DF90CF90BF90AF900895FC01538D448DB5
:1004A000252F30E0842F90E0821B930B541710F01F
:1004B000CF96089501970895FC01918D828D98172C
:1004C00061F0A28DAE0FBF2FB11D5D968C91928D04
:1004D0009F5F9F73928F90E008958FEF9FEF089535
:1004E000FC01918D828D981731F0828DE80FF11DFE
:1004F000858D90E008958FEF9FEF0895FC01918D19
:10050000228D892F90E0805C9F4F821B91098F7311
:100510009927089583EC97E00E947E0221E0892BC1
:1005200009F420E0822F0895FC01A48DA80FB92FB3
:10053000B11DA35ABF4F2C91848D90E001968F730B
:100540009927848FA689B7892C93A089B1898C912A
:10055000837080648C93938D848D981306C0028879
:10056000F389E02D80818F7D80830895EF92FF9243
:100570000F931F93CF93DF93EC0181E0888F9B8DC6
:100580008C8D98131AC0E889F989808185FF15C080
:100590009FB7F894EE89FF896083E889F9898081A3
:1005A0008370806480839FBF81E090E0DF91CF9172
:1005B0001F910F91FF90EF900895F62E0B8D10E094
:1005C0000F5F1F4F0F731127E02E8C8D8E110CC003
:1005D0000FB607FCFACFE889F989808185FFF5CF4E
:1005E000CE010E949402F1CFEB8DEC0FFD2FF11D97
:1005F000E35AFF4FF0829FB7F8940B8FEA89FB898B
:1006000080818062CFCFCF93DF93EC01888D8823E8
:10061000B9F0AA89BB89E889F9898C9185FD03C065
:10062000808186FD0DC00FB607FCF7CF8C9185FF4A
:10063000F2CF808185FFEDCFCE010E949402E9CFF9
:10064000DF91CF91089580E090E0892B29F00E94FE
:100650008A0281110E94000080E090E0892B49F01D
:1006600080E090E0892B29F00E94000081110E9417
:10067000000080E090E0892B49F080E090E0892B39
:1006800029F00E94000081110E94000080E090E0AB
:10069000892B49F080E090E0892B29F00E9400002E
:1006A00081110C94000008958150823108F05AC0E5
:1006B000E82FF0E08827E05AFC4F8F4F0C94D124AC
:1006C00080038403720378037C03B20387038D03E2
:1006D000910397039B039F03A503A903B203AD03F3
:1006E000B303B703809180008F77809380000895D3
:1006F000809180008F7DF9CF80918000877FF5CF3A
:1007000084B58F7784BD089584B58F7DFBCF8091AC
:10071000B0008F778093B00008958091B0008F7DF6
:10072000F9CF809190008F77809390000895809109
:1007300090008F7DF9CF80919000877FF5CF8091D9
:10074000A0008F778093A00008958091A0008F7DF6
:10075000F9CF8091A000877FF5CF809120018F771E
:10076000809320010895809120018F7DF9CF8091A1
:100770002001877FF5CFCF93DF93282F30E0F90159
:10078000E35BFC4F8491F901E95FFC4FD491F901DF
:10079000EF53FD4FC491CC23A1F081110E9454036B
:1007A000EC2FF0E0EE0FFF1FE955FD4FA591B4913E
:1007B000EC91ED2381E090E009F480E0DF91CF91AE
:1007C000089580E090E0FACF1F93CF93DF93282F16
:1007D00030E0F901E35BFC4F8491F901E95FFC4FE4
:1007E000D491F901EF53FD4FC491CC23A9F0162FFA
:1007F00081110E945403EC2FF0E0EE0FFF1FE3572E
:10080000FD4FA591B4918FB7F894EC91111108C0E8
:10081000D095DE23DC938FBFDF91CF911F91089598
:10082000DE2BF8CFCF93DF9390E0FC01E95FFC4F24
:1008300024918F539D4FFC0184918823C9F090E04F
:10084000880F991FFC01ED58FD4FA591B491FC0153
:10085000E357FD4FC591D49161110DC09FB7F89436
:100860008C91209582238C938881282328839FBF95
:10087000DF91CF910895623051F49FB7F8943C9185
:10088000822F809583238C93E8812E2BEFCF8FB717
:10089000F894EC912E2B2C938FBFEACFCF93DF935C
:1008A000EC01862F1B8291E09C831D86588F4F8B15
:1008B000688319829E8742E350E060E070E04F87D2
:1008C000588B698B7A8B44EF51E060E070E04B8B82
:1008D0005C8B6D8B7E8B62E00E941204898181307B
:1008E00041F488810E94BB0321E0892B31F420E090
:1008F00004C021E08E858823D1F32A83DF91CF9134
:1009000008953FB7F89480915C0690915D06A091A0
:100910005E06B0915F0626B5A89B05C02F3F19F073
:100920000196A11DB11D3FBFBA2FA92F982F88276F
:10093000BC01CD01620F711D811D911D42E0660F4A
:10094000771F881F991F4A95D1F708958F929F921C
:10095000AF92BF92CF92DF92EF92FF926B017C0138
:100960000E9481044B015C01C114D104E104F10433
:10097000B9F00E948104681979098A099B09683EC7
:1009800073408105910580F321E0C21AD108E10886
:10099000F10888EE880E83E0981EA11CB11CE4CFFC
:1009A000FF90EF90DF90CF90BF90AF909F908F908F
:1009B00008951F93CF93DF93EC01613031F06230E3
:1009C000E1F0DF91CF911F9108958D851E8560E044
:1009D0000E94E403688579858A859B850E94A60428
:1009E00061E0812F0E94E403688579858A859B8573
:1009F000DF91CF911F910C94A60488891989E7CFC4
:100A00002FB7F894609158067091590680915A0654
:100A100090915B062FBF0895089520910B06260F35
:100A20003327331F21323105ECF420913106FC01CC
:100A300090E080E0243069F082E00895A0910B06F8
:100A40002191AC0147515A4FA40FB52FB11D2C93E2
:100A50000196861798F380910B06680F60930B063A
:100A600080E0089581E008951092310681E080933E
:100A700033061092320661E084E10E94E40361E0F3
:100A800085E10E94E403E9EBF0E080818E7F8083C2
:100A900080818D7F808388E48093B80085E4809393
:100AA000BC000895CF93DF9391E09093E8058823ED
:100AB000B9F0C091B800D091BA008091BC008A7B97
:100AC0008093BC0060E084E10E94E40360E085E183
:100AD0000E94E4030E943405D093BA00C093B8008A
:100AE000DF91CF910895089508950895E091E0056C
:100AF0008091DF05E81730F4F0E0E154FA4F80818F
:100B000090E008958FEF9FEF08959091E005809118
:100B1000DF052FEF3FEF981748F4E92FF0E0E1549D
:100B2000FA4F208130E09F5F9093E005C90108955E
:100B30008091DF059091E005891B990B0895CF9274
:100B4000DF92EF92FF920F931F93CF93DF937C017D
:100B5000CB018A012091BE05222389F0EB016B01B4
:100B6000C40ED51ECC15DD0569F06991D701ED9154
:100B7000FC910190F081E02DC7011995F3CF642F0E
:100B80000E940D05C801DF91CF911F910F91FF9039
:100B9000EF90DF90CF900895CF93DF931F92CDB762
:100BA000DEB769832091BE052223F9F02091E1058B
:100BB000203258F021E030E0FC013383228390E0C2
:100BC00080E00F90DF91CF9108958091E205E82FAA
:100BD000F0E0E256FA4F998190838F5F8093E205AF
:100BE0008093E10581E090E0ECCF61E0CE010196D9
:100BF0000E940D05F7CFCF92DF92EF92FF920F93F5
:100C00001F93CF93DF93FC01C48121E02093BE05A5
:100C1000C0939D051092E2051092E1058385682B33
:100C200086E696E00E94CC05D091E105D13208F02D
:100C300092C00E9481046B017C0180913106811178
:100C400065C082E08093310681E0809333068FEFA8
:100C50008093300610925506D0935406AEE9B5E065
:100C6000E4E3F6E080E0D81385C010925606809148
:100C70005606CC0FC82BC0935606809132068130A1
:100C800009F07CC0109232060E9481046B017C0145
:100C9000809156068093BB008091E4059091E50514
:100CA000A091E605B091E705892B8A2B8B2B99F053
:100CB0000E9481040091E4051091E5052091E6056C
:100CC0003091E7056C197D098E099F0906171707F2
:100CD00028073907E0F18091BC0083FDD9CF85EC6E
:100CE0008093BC000E9481046B017C0180913106DD
:100CF000823009F445C0809130068F3F61F18091C8
:100D00003006803241F18091300625C08091E405A3
:100D10009091E505A091E605B091E705892B8A2B16
:100D20008B2B09F48ACF0E9481040091E405109175
:100D3000E5052091E6053091E7056C197D098E09DE
:100D40009F09061717072807390708F076CF809103
:100D5000E3050E9452051092E2051092E1051092FF
:100D6000BE05DF91CF911F910F91FF90EF90DF9023
:100D7000CF9008959D9191938F5F75CF85EEB0CF01
:100D80008091E4059091E505A091E605B091E70515
:100D9000892B8A2B8B2B09F4A9CF0E948104009107
:100DA000E4051091E5052091E6053091E7056C1901
:100DB0007D098E099F09061717072807390708F0CC
:100DC00095CFC5CF089590E080E00895CF92DF924F
:100DD000EF92FF920F931F93CF93DF93EC018881E3
:100DE0000E94BB032A812817190649F510E08B8160
:100DF000882309F479C00E940005CD80DE80EF8051
:100E0000F8846C197D098E099F09CB88DC88ED88F0
:100E1000FE88C616D706E806F90608F065C01B82EC
:100E200081E08C8313E0EF89F88D309709F45EC080
:100E300029853A854D85612F8881199557C00E9473
:100E400000056B017C010E9400056C197D098E096B
:100E50009F090F85188929893A89601771078207C8
:100E6000930738F461E070E080E090E00E94A6040F
:100E7000EACF88810E94BB032A812817190609F44A
:100E8000B5CF11E021272A838981813059F18E85E0
:100E900090E02817190681F40E940005CD80DE80BD
:100EA000EF80F8846C197D098E099F0969877A871C
:100EB0008B879C871B839ACF0E9400056D837E835E
:100EC0008F83988719861A861B861C868C818823B7
:100ED00029F01D871C821B8212E089CF8D858F5FD0
:100EE0008D87F9CF11E083CF11119DCF812FDF9135
:100EF000CF911F910F91FF90EF90DF90CF900895C9
:100F0000FC018285938501978617970790F04081B1
:100F10005181CA0130E020E06217730751F0029658
:100F2000A281B381A817B90708F4CA012F5F3F4F08
:100F3000F3CF089580919C05882381F08091650608
:100F400081FF0CC081E08093630680919B0588231C
:100F500029F080919A058F5F80939A05089580917A
:100F6000160281708061809365060895EF92FF926A
:100F70000F931F93CF93DF93F12CE12C082F10E0F8
:100F8000E016F106E4F4B70182E898E00E948007D9
:100F9000FC01C081D181D0936F05C0936E058E8511
:100FA0001C821B8260E00E94E40389891E821D82EC
:100FB00060E00E94E403FFEFEF1AFF0AE1CF6091C7
:100FC0001E0970911F0980912009909121090E94AA
:100FD000A604D0E0C0E0C017D107C4F4BE0182E887
:100FE00098E00E948007FC01E080F180F0926F059C
:100FF000E0926E0561E0F70185850E94E40361E0FF
:10100000F70180890E94E4032196E5CF60911E09D3
:1010100070911F098091200990912109DF91CF9152
:101020001F910F91FF90EF900C94A604FB0101908B
:101030000020E9F73197AF01461B570BDC01ED911A
:10104000FC910280F381E02D19948F929F92AF92D0
:10105000BF92EF92FF920F931F93CF93DF93CDB781
:10106000DEB7A1970FB6F894DEBF0FBECDBF7C01EF
:10107000FA01CB0119A2223008F42AE08E010F5D9B
:101080001F4F822E912CB12CA12CBF01A5019401E0
:101090000E94AF24F901CA016A300CF5605DD801E5
:1010A0006E938D01232B242B252B79F790E080E084
:1010B000109721F0BD01C7010E941608A1960FB636
:1010C000F894DEBF0FBECDBFDF91CF911F910F917E
:1010D000FF90EF90BF90AF909F908F900895695CC4
:1010E000DECF0F931F93CF93DF93EC010E9416087E
:1010F0008C0165E872E0CE010E941608800F911FF6
:10110000DF91CF911F910F91089568E872E0FC0183
:10111000808191810C94710861E972E0FC01808109
:1011200091810C9471086AE972E0FC0180819181DF
:101130000C94710863EA72E0FC01808191810E9445
:10114000710868EB7BE080E090E00E94A6040C94BC
:10115000000008958F929F92AF92BF92CF92DF923C
:10116000EF92FF920F931F93CF93DF9380918C08A0
:10117000909165069F7E9093650620919A059091C7
:101180009B052913D3C00E94B60780916D05E0919D
:101190008E08F0918F0823E0829FE00DF11D11244D
:1011A00080819181292F269526952370B22E492F73
:1011B0004370A42E9C01E6E036952795EA95E1F769
:1011C000E22FE370CE2E9C01F4E036952795FA9538
:1011D000E1F7F22FF370DF2E9C01369527953695B7
:1011E0002795122F1370F12CE12C082F037080919A
:1011F00097088E151F04E9F0E4F0B701809190087C
:10120000909191080E948007FC01C081D1818F815B
:10121000833009F4BAC008F09BC0813009F4A0C043
:10122000823009F4B0C062EB72E083EC97E00E9478
:10123000710860911E0970911F0980912009909199
:1012400021090E94A60480916D05E0918E08F0911D
:101250008F0823E0829FE00DF11D11248081918190
:10126000292F269526952370922E492F4370842E80
:101270009C0146E0369527954A95E1F7E22FE37009
:10128000AE2E9C0154E0369527955A95E1F7F22F42
:10129000F370BF2E8C011695079516950795037070
:1012A000F12CE12C182F1370CC24C394D12C8091F5
:1012B00097088E151F04E9F0E4F0B70180919008BB
:1012C000909191080E948007FC01C081D1818F819B
:1012D000833009F482C008F061C0813009F466C02F
:1012E000823009F478C062EB72E083EC97E00E94F0
:1012F000710880916D05E0918E08F0918F0823E0D0
:10130000829FE00DF11D1124828180939B058091C5
:101310006D058F5F80936D0590916D0580919408A8
:10132000981302C010926D0510929A05809165067F
:10133000806180936506DF91CF911F910F91FF909F
:10134000EF90DF90CF90BF90AF909F908F900895D7
:101350008530B9F0A0F0863009F065CF8B2D01C043
:10136000802F8230C1F0833091F0813021F460E031
:101370008D850E94E403FFEFEF1AFF0A38CF8C2D12
:10138000F0CF8A2DEECF812FECCF8D2DEACF60E00C
:101390008D850E94E40360E08889EBCF8530C9F039
:1013A000B0F0863009F09FCF892D01C0812F8230A7
:1013B000E1F08330A1F0813031F48E85DC82CB8284
:1013C00061E00E94E403FFEFEF1AFF0A70CF8A2D5D
:1013D000EECF882DECCF802FEACF8B2DE8CF8E85F6
:1013E000DC82CB8261E00E94E4038989DE82CD82C7
:1013F000E7CFFC01909160062081318191110CC0F2
:101400006FEA72E0C9010E947108809165068F71D0
:101410008064809365060895915090936006909340
:1014200094086CEB72E0C9010C94710861157105A8
:1014300011F00C94160890E080E00895CF93DF93AC
:10144000EC016DEC72E0888199810E94160A888116
:101450009981DC01ED91FC910280F381E02D41E066
:1014600050E065E676E0199565ED72E08881998136
:10147000DF91CF910C9471080F931F93CF93DF935B
:101480001F92CDB7DEB78C0180916106982F991F0E
:101490009927991F80916206880F892B898368EDAF
:1014A00072E0D8018D919C910E94160AF80180810A
:1014B0009181DC01ED91FC910280F381E02D41E00E
:1014C00050E0BE016F5F7F4F199567E872E0F80149
:1014D000808191810E9471080F90DF91CF911F91BF
:1014E0000F9108950F931F93CF93DF93EC018B011E
:1014F00062EE72E0888199810E94160AB8018881A3
:1015000099810E94160A66ED72E0888199810E9495
:101510007108809165068F71806280936506DF9106
:10152000CF911F910F910895CF93DF93EC01E7E6E0
:10153000F2E06591749180E795E00E943122E9E63E
:10154000F2E06591749180E795E00E94262260E7C1
:1015500075E088819981DF91CF910C947108CF93C8
:10156000DF93EC01E6E1F9E083858F9382858F9329
:1015700081858F9380858F9389EF92E09F938F93DE
:1015800080E795E09F938F930E9406278DB79EB7C3
:1015900008960FB6F8949EBF0FBE8DBF60E775E04A
:1015A00088819981DF91CF910C947108CF93DF935B
:1015B000EC018091610687701F928F9383E093E026
:1015C0009F938F9380E795E09F938F930E940627C8
:1015D0000F900F900F900F900F900F9060E775E0B5
:1015E00088819981DF91CF910C947108AC01425FA1
:1015F0005F4FFC016085718590E080E00C9438229B
:10160000CF92DF92EF92FF920F931F93CF93DF93CE
:10161000EC010E94F60A8C01EBE6F2E0009769F01B
:1016200002960E94082201976C01CE010E94F60AE0
:101630007C010097B1F4EDE6F2E06591749180E7EA
:1016400095E00E94312260E775E088819981DF9101
:10165000CF911F910F91FF90EF90DF90CF900C945E
:10166000710802960E940822FC01EE0FFF1F25E17F
:101670002C9DC0012D9D900D1124E80FF91FE856F7
:10168000F74FC180D28064E173E0888199810E9424
:10169000160AB801888199810E94160A6FE374E0E6
:1016A000888199810E94160AB701888199810E94D8
:1016B000160A6FE374E0888199810E94160A888176
:1016C000998169E173E0CA94CD2809F26CE173E075
:1016D000BECFCF93DF93EC010E94F60A0E9408224E
:1016E000BC01990F880B990B0E946E2220E030E01C
:1016F0004AE754E40E94F8236093000270930102C9
:10170000809302029093030220E034E244E757E41E
:101710000E94CD2220E030E040E05FE30E94CD2235
:101720009B01AC0160E070E080E897E40E948B23AD
:101730000E946A24709315026093140260E273E0C1
:1017400088819981DF91CF910C947108EF92FF927B
:101750000F931F93CF938C01809194088093600620
:10176000C8010E94F60A7C01C3E080916006E11482
:10177000F10409F463C1803291F4809165068F71A0
:1017800080668093650669E273E0F801808191814B
:10179000CF911F910F91FF90EF900C94710869E326
:1017A00073E0C7010E94E826892B81F5C8010E94D9
:1017B000F60A7C016DE373E00E94E826892B91F420
:1017C00080916006E0918E08F0918F088C9FE00D6B
:1017D000F11D1124808181608083C8010E94F60A76
:1017E0007C01C3CF61E473E0C7010E94E826892B26
:1017F000A1F780916006E0918E08F0918F088C9F90
:10180000E00DF11D112480818260E6CF65E473E074
:10181000C7010E94E826892B59F5C8010E94F60AE3
:101820007C016DE373E00E94E826892B69F48091C6
:101830006006E0918E08F0918F088C9FE00DF11DFD
:10184000112480818460C8CF61E473E0C7010E94E5
:10185000E826892B11F680916006E0918E08F091C0
:101860008F088C9FE00DF11D112480818860B4CF1A
:1018700069E473E0C7010E94E826892B61F5C8017D
:101880000E94F60A7C016DE373E00E94E826892B32
:1018900069F480916006E0918E08F0918F088C9F2A
:1018A000E00DF11D11248081806196CF61E473E029
:1018B000C7010E94E826892B09F08FCF809160062E
:1018C000E0918E08F0918F088C9FE00DF11D11249E
:1018D0008081806281CF6DE473E0C7010E94E826B9
:1018E000892B61F5C8010E94F60A7C016DE373E063
:1018F0000E94E826892B69F480916006E0918E08A9
:10190000F0918F088C9FE00DF11D1124808180647F
:1019100063CF61E473E0C7010E94E826892B09F0D8
:101920005CCF80916006E0918E08F0918F088C9FCB
:10193000E00DF11D1124808180684ECF61E573E0D8
:10194000C7010E94E826892B69F5C8010E94F60AA2
:101950007C016DE373E00E94E826892B71F480918D
:101960006006E0918E08F0918F088C9FE00DF11DCC
:10197000112481818160818330CF61E473E0C701EC
:101980000E94E826892B09F028CF80916006E0911B
:101990008E08F0918F088C9FE00DF11D112481813C
:1019A0008260E9CF65E573E0C7010E94E826892BD4
:1019B00061F5C8010E94F60A7C016DE373E00E94A4
:1019C000E826892B69F480916006E0918E08F091F9
:1019D0008F088C9FE00DF11D112481818460CBCF95
:1019E00061E473E0C7010E94E826892B09F0F5CE77
:1019F00080916006E0918E08F0918F088C9FE00D39
:101A0000F11D112481818860B6CF69E573E0C701BB
:101A10000E94E826892B09F0E0CEC8010E94F60A50
:101A20000E94082290916006E0918E08F0918F0844
:101A30009C9FE00DF11D11248283CFCE8F5F809398
:101A400060066BE573E080E795E00E94F12660E7B1
:101A500075E0F801808191810E9471088091600693
:101A600080939408CF911F910F91FF90EF9008956C
:101A7000EF92FF920F931F93CF93DF938C010E94FD
:101A8000F60A0E940822C82FC8010E94F60A7C01AB
:101A9000C15083E0C89FE0011124E114F10409F46E
:101AA0001BC169E373E0C7010E94E826892B41F559
:101AB000C8010E94F60A7C016DE373E00E94E826EB
:101AC000892B71F4E0918E08F0918F08EC0FFD1FC7
:101AD000808181608083C8010E94F60A7C01DDCF8D
:101AE00061E473E0C7010E94E826892BA1F7E09129
:101AF0008E08F0918F08EC0FFD1F80818260EACF85
:101B000065E473E0C7010E94E826892B19F5C80136
:101B10000E94F60A7C016DE373E00E94E826892B9F
:101B200049F4E0918E08F0918F08EC0FFD1F808141
:101B30008460D0CF61E473E0C7010E94E826892B5E
:101B400051F6E0918E08F0918F08EC0FFD1F808117
:101B50008860C0CF69E473E0C7010E94E826892B42
:101B600021F5C8010E94F60A7C016DE373E00E9432
:101B7000E826892B49F4E0918E08F0918F08EC0F4C
:101B8000FD1F80818061A6CF61E473E0C7010E94E0
:101B9000E826892B09F09FCFE0918E08F0918F08FD
:101BA000EC0FFD1F8081806295CF6DE473E0C7016B
:101BB0000E94E826892B21F5C8010E94F60A7C01C3
:101BC0006DE373E00E94E826892B49F4E0918E08CA
:101BD000F0918F08EC0FFD1F808180647BCF61E462
:101BE00073E0C7010E94E826892B09F074CFE091C9
:101BF0008E08F0918F08EC0FFD1F808180686ACFFE
:101C000061E573E0C7010E94E826892B29F5C80128
:101C10000E94F60A7C016DE373E00E94E826892B9E
:101C200051F4E0918E08F0918F08EC0FFD1F818137
:101C30008160818350CF61E473E0C7010E94E82690
:101C4000892B09F048CFE0918E08F0918F08EC0FB6
:101C5000FD1F81818260EDCF65E573E0C7010E94C1
:101C6000E826892B21F5C8010E94F60A7C016DE364
:101C700073E00E94E826892B49F4E0918E08F091E8
:101C80008F08EC0FFD1F81818460D3CF61E473E086
:101C9000C7010E94E826892B09F01DCFE0918E082C
:101CA000F0918F08EC0FFD1F81818860C2CF69E53C
:101CB00073E0C7010E94E826892B09F00CCFC80108
:101CC0000E94F60A0E940822E0918E08F0918F0887
:101CD000EC0FFD1F8283FFCE65E673E080E795E0A1
:101CE0000E94F12660E775E0F801808191810E94F1
:101CF000710881E0DF91CF911F910F91FF90EF90DC
:101D000008950F931F93CF93DF93EC010E94F60A7F
:101D10008C01F8946FE673E00E94E826892B51F558
:101D2000ED988CE095E090930702809306028091F5
:101D300065068B7F809365068AE997E0909307029A
:101D40008093060280916A00837F886080936A0096
:101D5000ED9A789464E873E0888199810E94160A6C
:101D600067EB73E088819981DF91CF911F910F918B
:101D70000C94710863E773E0C8010E94E826892B80
:101D8000B1F4ED988CE095E0909307028093060201
:101D9000809165068460809365068AE997E0909358
:101DA00007028093060280916A008C60CFCF67E7BC
:101DB00073E0888199810E947108CBCFDF92EF9206
:101DC000FF920F931F93CF93DF93EC010E94F60ACB
:101DD000009751F0FC0101900020E9F79F01245089
:101DE000310928173907E1F0EBE6F2E065917491CB
:101DF00080E795E00E94312260E775E08881998153
:101E00000E947108809165068F71806C80936506D1
:101E1000DF91CF911F910F91FF90EF90DF90089588
:101E200002960E9408228C01CE010E94F60A0097B9
:101E300051F0FC0101900020E9F79F012450310985
:101E40002817390719F0EDE6F2E0D0CF02960E948C
:101E50000822D82ECE010E94F60A7C01892B09F4B3
:101E60006BC00150110985E1809FF001819FF00D49
:101E70001124E856F74F8081882309F45DC06CE88F
:101E800073E0C7010E94E826892BC1F06CE173E082
:101E9000C7010E94E826892B89F060E973E0C70139
:101EA0000E94E826892B41F069E173E0C7010E9496
:101EB000E826892B09F040C061E001C060E0F1E054
:101EC000DF16B1F082E0D81669F163E973E080E7CC
:101ED00095E00E94F12660E775E088819981DF91A5
:101EE000CF911F910F91FF90EF90DF900C947108AC
:101EF00085E1809FF001819FF00D1124E856F74F96
:101F000087850E94E40385E1809FF001819FF00DA9
:101F10001124E856F74F60857185828593850E946C
:101F2000A604D3CF85E1809FF001819FF00D11249D
:101F3000E856F74F8289E5CF809165068F71806CF6
:101F4000809365066AE973E0888199810E94160A88
:101F5000EFE6F2E06591749180E795E00E9431220E
:101F6000BACF4F925F926F927F92AF92BF92CF9211
:101F7000DF92EF92FF920F931F93CF93DF936C0149
:101F80000E94F60A0E940822182FF12CE12C00E092
:101F90000117D0F5C0918E08D0918F08CE0DDF1DAE
:101FA0005E0183E0A80EB11C0E9400056093CB0780
:101FB0007093CC078093CD079093CE0783EC97E086
:101FC0000E945C0297FF42C00E9400054090CB0730
:101FD0005090CC076090CD077090CE0764197509BA
:101FE000860997094090C7075090C8076090C907B5
:101FF0007090CA076415750586059705F8F20F5F9E
:10200000E3E0EE0EF11CC4CF109394081093600629
:1020100082E898E0909391088093900861EA73E0D9
:10202000F601808191810E947108C601DF91CF91F4
:102030001F910F91FF90EF90DF90CF90BF90AF90E6
:102040007F906F905F904F900C94F60A8993AC1636
:10205000BD0609F0A9CFD3CFCF93DF93EC010E9447
:10206000F60A0E940822092E000CAA0BBB0B8093D3
:102070001E0990931F09A0932009B09321096AEAD1
:1020800073E088819981DF91CF910C94710885ED7F
:102090008093BC008091E4059091E505A091E60550
:1020A000B091E7050796A11DB11D23E0B695A79550
:1020B000979587952A95D1F72091BC0024FD03C000
:1020C0001092310608954091E4055091E505609124
:1020D000E6057091E705452B462B472B69F30097E2
:1020E000A105B10541F025E32A95F1F7000001971C
:1020F000A109B109E1CF8091E3050C9452050F933A
:102100001F93CF938C01C62F0E94FB056C2F646038
:10211000C8010E94FB056C2F6B7FC8010E94FB0564
:1021200083EC90E00197F1F7CF911F910F91089503
:102130000F931F93CF93DF938C01D62FC42F607F13
:10214000642B0E947F1080E1D89FB00111246C2B7A
:10215000C801DF91CF911F910F910C947F10CF9305
:10216000DF9300D000D01F921F92CDB7DEB798E06A
:10217000EDE1F2E0DE01119601900D929A95E1F702
:1021800090917E08961710F46FEF690F262F30E0BC
:10219000220F331F41E050E04C0F5D1F240F351F0D
:1021A000F9016081680F606840E086E798E0289652
:1021B0000FB6F894DEBF0FBECDBFDF91CF910C9468
:1021C00098107F928F929F92AF92BF92CF92DF92A0
:1021D000EF92FF920F931F93CF93DF934C010E94D6
:1021E000F60A009751F0FC0101900020E9F79F01E9
:1021F0002450310928173907A1F0EBE6F2E0659188
:10220000749180E795E00E94312260E775E0F40167
:10221000808191810E947108809165068F7180682C
:1022200026C002960E94082201976C0125E12C9D90
:10223000C0012D9D900D11249C012856374F590146
:10224000F9018081811123C0E1E7F2E06591749189
:1022500080E795E00E94312260E775E0F40180811B
:1022600091810E947108809165068F71806A8093C8
:102270006506DF91CF911F910F91FF90EF90DF9056
:10228000CF90BF90AF909F908F907F900895C401A2
:102290000E94F60A7C01009749F0FC0101900020A1
:1022A000E9F7CF0104978E159F0519F0EDE6F2E0EE
:1022B000A6CFC70102960E940822EC01019702975F
:1022C00098F0EDE6F2E06591749180E795E00E9468
:1022D000312260E775E0F401808191810E947108EC
:1022E00080916506806EC3CFC4010E94F60A8C01FE
:1022F000892B09F4B0C0F5018081882309F4ABC0B3
:102300006CE873E0C8010E94E826892B09F465C0D7
:102310006CE173E0C8010E94E826892B09F45DC0D6
:1023200060E973E0C8010E94E826892B41F069E169
:1023300073E0C8010E94E826892B09F08CC085E172
:102340008C9D50018D9DB00C11246C2FC5018856B9
:10235000974F0E94D904CC0FDD1FCA0DDB1DC85654
:10236000D74F81E090E09A83898363EB73E080E745
:1023700095E00E94F12660E775E0F401808191818B
:102380000E94710863E080E00E94AF10B70186E709
:1023900098E00E94160A63E083E00E94AF106FE3AA
:1023A00074E086E798E00E94160AB80186E798E094
:1023B0000E94160A6FE374E086E798E0DF91CF9100
:1023C0001F910F91FF90EF90DF90CF90BF90AF9053
:1023D0009F908F907F900C94160A85E1C23089F10E
:1023E0008C9DF0018D9DF00D1124E856F74F7584FA
:1023F000868560E00E94E40385E18C9D50018D9DFF
:10240000B00C112495012856374F6901F9016085F8
:102410007185828593850E94A60461E0872D0E94C4
:10242000E403F60160857185828593850E94A60488
:10243000CC0FDD1FCA0DDB1DC856D74F1A8219827B
:1024400094CF8C9DF0018D9DF00D1124E856F74F2F
:1024500070888189CECF809165068F71806A809364
:1024600065066AE973E0F401808191810E94160A91
:10247000EFE6F2E06591749180E795E00E943122E9
:1024800060E775E0F40180819181DF91CF911F9128
:102490000F91FF90EF90DF90CF90BF90AF909F9003
:1024A0008F907F900C947108CF93DF93EC01809113
:1024B0008C080E94B60710929A0510929B05809195
:1024C00065068F718093650663E080E00E94AF101F
:1024D0006AEB73E086E798E00E94160A64EC73E00A
:1024E00088819981DF91CF910C947108CF93DF930C
:1024F000EC0181E0809316029091160280916506AE
:1025000090FB80F98093650663E081E10E94AF1043
:102510006DEC73E086E798E00E94160A61ED73E0C7
:1025200088819981DF91CF910C947108CF93DF93CB
:10253000EC0110921602909116028091650690FBB4
:1025400080F98093650663E081E10E94AF1068ED39
:1025500073E086E798E00E94160A6CED73E08881CC
:102560009981DF91CF910C9471080F931F93CF93B2
:10257000DF93EC010E94F60A8C0163EE73E00E9487
:10258000E826892BF1F4809165068D7F809365069E
:1025900063E08DE00E94AF10B80186E798E00E94EA
:1025A000160A6FE374E086E798E00E94160A69EF66
:1025B00073E088819981DF91CF911F910F910C94E5
:1025C000710867EE73E0C8010E94E826892B21F4A8
:1025D000809165068260DACF6BEE73E08881998125
:1025E0000E947108D5CF21E020939C0560E074E043
:1025F000FC01808191810E94710863E080E00E946B
:10260000AF1068E074E086E798E00C94160A0C942A
:10261000F31210929C0566E174E0FC0180819181C7
:102620000E94710863E080E00E94AF106EE174E0E8
:1026300086E798E00E94160A10926D0510929A059E
:1026400010929B05089510929C056CE274E0FC01C9
:10265000808191810E94710863E080E00E94AF1048
:1026600063E374E086E798E00C94160A633009F09F
:1026700060C0293B8BE03807E8F08091160291E0BA
:10268000892780931602909116028091650690FB2F
:1026900080F98093650681E10E94AF108091160257
:1026A0006DEC73E0811102C068ED73E086E798E09D
:1026B0000C94160A283B3B40E1F180919805E0918B
:1026C0008E08F0918F08869FE00DF11D11249281F4
:1026D0001F929F9391811F929F9390811F929F932E
:1026E00090E001969F938F9381E494E09F938F9362
:1026F00080E795E09F938F930E94062763E080E038
:102700000E94AF1060E775E086E798E00E94160A25
:10271000809198058F5F609194080E94A324909304
:1027200098058DB79EB70C960FB6F8949EBF0FBE56
:102730008DBF08958F929F92AF92BF92CF92DF92FA
:10274000EF92FF920F931F93CF93DF938091160226
:10275000882309F497C0633009F094C0062F80E005
:102760000E94AF108091990590E001969F938F93FE
:1027700082E594E09F938F9380E795E09F938F93FA
:102780000E94062760E775E086E798E00E94160A37
:102790000F900F900F900F900F900F908091600608
:1027A000882309F46FC080918C080E94B60770E0FE
:1027B00060E082E898E00E948007FC0180819181BE
:1027C00090936F0580936E056091990581E0860F67
:1027D00080939905609F80011124E0918E08F0910B
:1027E0008F08E00FF11F80819181292F2695269572
:1027F0002370922EF92FF3708F2E9C0146E03695B0
:1028000027954A95E1F7422F4370A42E9C0154E08E
:10281000369527955A95E1F7E22FE370BE2E9C017D
:102820003695279536952795D22FD370D12CC12C6C
:10283000C82FC370809197088C151D0409F00CF403
:1028400052C0B60180919008909191080E94800733
:10285000FC01E080F180F70187818330C9F1F8F451
:10286000813021F1823091F162EB72E083EC97E0EC
:102870000E94710880919905609194080E94A32498
:1028800090939905DF91CF911F910F91FF90EF9059
:10289000DF90CF90BF90AF909F908F90089585303C
:1028A00099F080F0863001F7892D01C08C2F82309D
:1028B000A9F0833079F061E0813089F0FFEFCF1A21
:1028C000DF0AB8CF8A2DF3CF882DF1CF8D2FEFCF30
:1028D0008B2DEDCF61E0C7010E94D90462E0C701F2
:1028E0000E94D904EBCF60918E0870918F08060F7B
:1028F000171FF801828180939B05BCCF41E00E94A5
:10290000981081E090E00895CF92DF92EF92FF92CD
:10291000CF93DF931092E0051092DF051092E2054D
:102920001092E1050E94340583E795E090930A0632
:102930008093090684E795E090930E0680930D0638
:1029400010927B0880918008823018F098E0909374
:102950007B0880937E0862E370E080E090E00E9454
:10296000A6046091810886E798E00E94FB0568EE66
:1029700073E080E090E00E94A60460E386E798E0C0
:102980000E947F10CBE4D6E4CE010197F1F760E31B
:1029900086E798E00E947F102197F1F760E386E7D1
:1029A00098E00E947F1083E592E00197F1F760E2E2
:1029B00086E798E00E947F1060917B08606240E0AB
:1029C00086E798E00E94981084E080937C0840E0BD
:1029D0006CE086E798E00E94981040E061E086E7AE
:1029E00098E00E949810CBE3DFE1CE010197F1F768
:1029F00082E080937D0840E066E086E798E00E94F0
:102A0000981040E062E086E798E00E949810CE01BE
:102A10000197F1F788E08093810860E086E798E00D
:102A20000E94FB0540E061E086E798E00E94981074
:102A30002197F1F760E080E00E94AF10E7E6F2E056
:102A40006591749180E795E00E94312260E775E01E
:102A500086E798E00E94160A61E080E00E94AF10CD
:102A600060E674E086E798E00E94160A61E087E07D
:102A70000E94AF1066E674E086E798E00E94160AAE
:102A800061E08EE00E94AF10C8E9D8E0C12CD12CE3
:102A90007601C3948881882369F12AE0B701A601F1
:102AA00086E798E00E94250865968FEFC81AD80A35
:102AB000E80AF80A87E0C816D104E104F10451F7E6
:102AC00063E081E10E94AF106DEC73E086E798E06F
:102AD0000E94160A63E08DE00E94AF1063EE73E07F
:102AE00086E798E0DF91CF91FF90EF90DF90CF9055
:102AF0000C94160A6FE374E086E798E00E94160AC9
:102B0000D3CFEF92FF920F931F93CF93DF93E09079
:102B10008C08F0908D088E2D0E94B60710E000E022
:102B2000FF240E151F051CF5B80182E898E00E94ED
:102B30008007FC01C081D181D0936F05C0936E05E1
:102B400060E08F850E94E403688579858A859B858E
:102B50000E94A60460E08A890E94E4036885798562
:102B60008A859B850E94A6040F5F1F4FDACF81E004
:102B700080931602809165068D7F809365060E9482
:102B800084140E94AF0710929A0510929B05DF9162
:102B9000CF911F910F91FF90EF900895CF93DF9306
:102BA000EC010E9481156EE674E088819981DF91C5
:102BB000CF910C947108633071F40E9481151092CA
:102BC000990563E080E00E94AF1067E774E086E754
:102BD00098E00C94160A0895CF93DF93FC01C0810E
:102BE000D1814091940850E070E060E02AE0CE018D
:102BF0000E94250865E872E0CE01DF91CF910C9428
:102C000016084F925F926F927F928F929F92AF922F
:102C1000BF92CF92DF92EF92FF920F931F93CF93C9
:102C2000DF938C0162E874E0FC01808191810E9455
:102C3000160AF801C081D18120E030E04AE754E46F
:102C40006091000270910102809102029091030252
:102C50000E94CD226B017C014B015C01AC019B0108
:102C60000E949E2469E874E081111AC02601370190
:102C7000E89477F82FEF3FEF4FE75FE7C301B2012A
:102C80000E949E24811126C02FEF3FEF4FE75FE7A0
:102C9000C301B2010E9467221816E4F46DE874E0E3
:102CA000CE010E9416086FEF72E0F80180819181D9
:102CB000DF91CF911F910F91FF90EF90DF90CF9018
:102CC000BF90AF909F908F907F906F905F904F904C
:102CD0000C9471082FEF3FEF4FE75FE4C701B60197
:102CE0000E94992418161CF461E974E0D9CF2FEFE3
:102CF0003FEF4FE75FECC701B6010E94672287FDF7
:102D0000F3CF20E030E0A901C701B6010E9467229D
:102D100087FF0EC0E881F9810190F081E02D6DE21E
:102D2000CE01199546015701B7FAB094B7F8B0949F
:102D30002AE037ED43EA5BE3C501B4010E948C232E
:102D40004B015C010E946A246B017C010E946C2291
:102D50009B01AC01C501B4010E948B234B015C01B6
:102D60002AE0B701A601CE010E942508E881F98179
:102D70000190F081E02D6EE2CE01199520E030E067
:102D800040E251E4C501B4010E94CD224B015C0137
:102D90000E946A246B01F12CE12C2AE0B701A60104
:102DA000CE010E942508C701B6010E946C229B013A
:102DB000AC01C501B4010E948B2320E030E040E269
:102DC00051E40E94CD220E946A24AB0170E060E0D1
:102DD0002AE0CE010E94250866CFEF92FF920F9362
:102DE0001F93CF93DF937C010E94F60A0E94082272
:102DF000EC01219761E070E090E080E00E94FE2508
:102E00008C01009731F0FC01108267E872E00E94AB
:102E1000F126809194088C171D06F8F480916506C0
:102E20008F7180668093650665E974E080E795E0C0
:102E30000E94F12660E775E0F701808191810E9490
:102E400071080115110599F1C801DF91CF911F910A
:102E50000F91FF90EF900C947525CE01880F991F6C
:102E60008C0F9D1FE0918E08F0918F08E80FF91FDD
:102E700082811F928F9381811F928F9380811F92F5
:102E80008F932196DF93CF9380EA94E09F938F9363
:102E900080E795E09F938F930E940627EDB7FEB7DA
:102EA0003C960FB6F894FEBF0FBEEDBFC3CFDF91C7
:102EB000CF911F910F91FF90EF9008951F920F9265
:102EC0000FB60F9211240BB60F922F933F934F938F
:102ED0005F936F937F938F939F93AF93BF93EF9382
:102EE000FF9383EC97E00E949402FF91EF91BF91D2
:102EF000AF919F918F917F916F915F914F913F9192
:102F00002F910F900BBE0F900FBE0F901F90189532
:102F10001F920F920FB60F9211240BB60F922F93A0
:102F20008F939F93EF93FF93E091D307F091D40792
:102F30008081E091D907F091DA0782FD1DC0908170
:102F40008091DC078F5F8F732091DD07821741F03E
:102F5000E091DC07F0E0ED53F84F958F8093DC07AC
:102F6000FF91EF919F918F912F910F900BBE0F903A
:102F70000FBE0F901F9018958081F2CF1F920F9275
:102F80000FB60F9211242F933F938F939F93AF937C
:102F9000BF938091580690915906A0915A06B0911E
:102FA0005B063091570623E0230F2D3758F5019625
:102FB000A11DB11D20935706809358069093590682
:102FC000A0935A06B0935B0680915C0690915D06D3
:102FD000A0915E06B0915F060196A11DB11D809380
:102FE0005C0690935D06A0935E06B0935F06BF916A
:102FF000AF919F918F913F912F910F900FBE0F90A6
:103000001F90189526E8230F0296A11DB11DD2CF5F
:103010001F920F920FB60F9211240BB60F922F939F
:103020003F934F935F936F937F938F939F93AF9350
:10303000BF93EF93FF93E0911202F0911302199561
:10304000FF91EF91BF91AF919F918F917F916F9180
:103050005F914F913F912F910F900BBE0F900FBE3C
:103060000F901F9018951F920F920FB60F92112478
:103070000BB60F922F933F934F935F936F937F9372
:103080008F939F93AF93BF93EF93FF93E0911002C1
:10309000F09111021995FF91EF91BF91AF919F911E
:1030A0008F917F916F915F914F913F912F910F90F1
:1030B0000BBE0F900FBE0F901F9018951F920F928E
:1030C0000FB60F9211240BB60F922F933F934F938D
:1030D0005F936F937F938F939F93AF93BF93EF9380
:1030E000FF93E0910602F09107021995FF91EF918D
:1030F000BF91AF919F918F917F916F915F914F9110
:103100003F912F910F900BBE0F900FBE0F901F900D
:1031100018951F920F920FB60F9211240BB60F92B3
:103120002F933F934F935F936F937F938F939F93CF
:10313000AF93BF93EF93FF93E0910402F0910502E8
:103140001995FF91EF91BF91AF919F918F917F91D1
:103150006F915F914F913F912F910F900BBE0F9008
:103160000FBE0F901F9018951F920F920FB60F92DF
:1031700011240BB60F922F933F934F935F936F934E
:103180007F938F939F93AF93BF93EF93FF93E091C0
:103190000E02F0910F021995FF91EF91BF91AF913F
:1031A0009F918F917F916F915F914F913F912F915F
:1031B0000F900BBE0F900FBE0F901F9018951F928F
:1031C0000F920FB60F9211240BB60F922F933F93CD
:1031D0004F935F936F937F938F939F93AF93BF931F
:1031E000EF93FF93E0910C02F0910D021995FF917E
:1031F000EF91BF91AF919F918F917F916F915F916F
:103200004F913F912F910F900BBE0F900FBE0F90DB
:103210001F9018951F920F920FB60F9211240BB6A4
:103220000F922F933F934F935F936F937F938F935F
:103230009F93AF93BF93EF93FF93E0910A02F091B6
:103240000B021995FF91EF91BF91AF919F918F91D3
:103250007F916F915F914F913F912F910F900BBE96
:103260000F900FBE0F901F9018951F920F920FB6E0
:103270000F9211240BB60F922F933F934F935F93AE
:103280006F937F938F939F93AF93BF93EF93FF932E
:10329000E0910802F09109021995FF91EF91BF9119
:1032A000AF919F918F917F916F915F914F913F91DE
:1032B0002F910F900BBE0F900FBE0F901F9018957F
:1032C0001F920F920FB60F9211240BB60F922F93ED
:1032D0003F934F935F936F937F938F939F93AF939E
:1032E000BF93EF93FF938091B900887F803609F4F4
:1032F0004DC008F040C0883209F4A9C028F58031DB
:1033000009F49DC0C8F4882309F4FBC0883009F48F
:1033100096C0FF91EF91BF91AF919F918F917F9157
:103320006F915F914F913F912F910F900BBE0F9036
:103330000FBE0F901F901895883109F488C0803215
:1033400041F78093300614C0803409F49DC040F4E6
:103350008033B9F38833E9F68093300685ECB0C04A
:10336000803509F485C0883509F496C0883489F61B
:103370000E944710CECF883909F48CC038F58837C1
:1033800029F050F4883611F0803719F683E08093E5
:10339000310610922F0657C0883809F47BC0803957
:1033A00019F0803809F0B5CF80912F06803208F0EF
:1033B00071C0E0912F0681E08E0F80932F068091DF
:1033C000BB00F0E0E15FF94F80833DC0803B39F006
:1033D000E0F4803A09F479C0883A09F09ACF84E0A1
:1033E0008093310610920C0610920B06E0910906AC
:1033F000F0910A06199580910B0681110FC081E0AA
:1034000080930B061092E90509C0803C09F4A6CF11
:10341000883C09F4A3CF883B09F07BCFE0910C06F0
:1034200081E08E0F80930C06F0E0E751FA4F808127
:103430008093BB0090910C0680910B0629C080916F
:1034400056068093BB0085EC8093BC0062CF9091C0
:10345000550680915406981758F5E091550681E07D
:103460008E0F80935506F0E0EC5CF94F8081E9CF38
:10347000E091550681E08E0F809355068091BB0048
:10348000F0E0EC5CF94F80839091550680915406F2
:103490009817C8F285E8D8CFE091550681E08E0FE5
:1034A000809355068091BB00F0E0EC5CF94F80837F
:1034B0008091330681115CCF81E08093320684EAEB
:1034C0008093BC001092310624CF85EC8093BC0021
:1034D0001092310680912F06803230F4E0912F0651
:1034E000F0E0E15FF94F108260912F0670E0E0910B
:1034F0000D06F0910E068FE096E0199510922F06BA
:1035000008CF1092300634CF1F920F920FB60F9251
:1035100011240BB60F922F933F934F935F936F93AA
:103520007F938F939F93AF93BF93CF93EF93FF932B
:1035300080911402909115029093850080938400ED
:103540008AE00E94BB03C1E0682F6C278AE00E94DA
:10355000E40380919C05882379F08091650681FDC4
:103560000BC0C093640680919B05882329F080914D
:103570009A058F5F80939A05FF91EF91CF91BF914C
:10358000AF919F918F917F916F915F914F913F91FB
:103590002F910F900BBE0F900FBE0F901F9018959C
:1035A0001092C6071092C50788EE93E0A0E0B0E045
:1035B0008093C7079093C807A093C907B093CA0721
:1035C00029E532E03093C4072093C30725EC30E0AF
:1035D0003093D0072093CF0724EC30E03093D2070C
:1035E0002093D10720EC30E03093D4072093D30709
:1035F00021EC30E03093D6072093D50722EC30E061
:103600003093D8072093D70726EC30E03093DA07C1
:103610002093D9071092DC071092DD071092DE0785
:103620001092DF07109269061092680680936A066E
:1036300090936B06A0936C06B0936D068BE692E0B8
:10364000909367068093660680E490E00E94D924F8
:1036500090937306809372069C01225C3F4F3093D7
:103660007506209374069093770680937606909360
:1036700079068093780680E290E090937B068093B1
:103680007A0610927D0610927C061092160982E04E
:10369000809322091092230910922409109226097E
:1036A0001092270910922A091092180910921709EE
:1036B00010921A091092190982E090E0A0E0B0E09F
:1036C00080931E0990931F09A0932009B0932109AC
:1036D00010922C0910922D0984E080932E0981E02C
:1036E00080932B09E8E9F8E022E082E090E0A0E096
:1036F000B0E01082248715861686108A118A148AF3
:10370000128211821482138280879187A287B387E5
:10371000759639E0E631F30761F71092910810923F
:10372000900880E690E00E94D92490938F088093BF
:103730008E0880E2809394081092970890E080E0D1
:1037400030E020E061E0409194084217130609F050
:103750000CF451C0A901440F551F420F531FE091B3
:103760008E08F0918F08E40FF51F1082118262839A
:10377000009709F4BCC240917806509179064E5FDB
:103780005F4F5093790640937806A0917406B091EC
:103790007506A417B50740F4409172065091730660
:1037A0005093790640937806A0917806B0917906F7
:1037B000ED93FC93019681329105D0F080917606CD
:1037C00090917706029690937706809376064091C3
:1037D0007406509175064817590740F48091720697
:1037E00090917306909377068093760680E290E03E
:1037F0002F5F3F4FA8CF90937D0680937C06109259
:1038000094088AE080939308809392088CE090E07B
:103810000E94D92490938308809382089C01265F9C
:103820003F4F3093850820938408909387088093B6
:103830008608909389088093880886E090E09093AA
:103840008B0880938A0810928D0810928C08109231
:103850007908109278088DE792E09093770880932A
:10386000760887E280937A0884E180937F0884E079
:10387000809380081092810883EC97E09093610810
:103880008093600883E897E09093630880936208D0
:103890008FE390E0909365088093640885E892E058
:1038A00090936708809366088FE394E0909369088B
:1038B0008093680810926B0810926A0810926D0845
:1038C00010926C0810926F0810926E081092700897
:1038D0001092720810927108109274081092730876
:1038E000109275088CEB94E090937E0780937D078F
:1038F00081EE90E19093800780937F07109282077A
:103900001092810780EC94E090937807809377077A
:1039100080E09BE090937A078093790710927C0770
:1039200010927B0785EC94E0909372078093710767
:1039300084E99AE090937407809373071092760756
:10394000109275078BEC94E090936C0780936B0753
:103950008EEC95E190936E0780936D07109270073F
:1039600010926F0780ED94E090936607809365074F
:1039700084E592E1909368078093670710926A0745
:103980001092690785ED94E09093600780935F073C
:1039900086E792E190936207809361071092640733
:1039A0001092630788ED93E090935A07809359072C
:1039B00086E992E190935C0780935B0710925E0723
:1039C00010925D0789ED94E090935407809353071C
:1039D00085EB92E190935607809355071092580714
:1039E000109257078DED94E090934E0780934D070A
:1039F00089E69BE09093500780934F0710925207FF
:103A00001092510783EE94E0909348078093470704
:103A100081E096E190934A078093490710924C0702
:103A200010924B078AEE94E09093420780934107EF
:103A300086EA9BE0909344078093430710924607E1
:103A40001092450781EF94E090933C0780933B07E9
:103A500088E39DE090933E0780933D0710924007D6
:103A600010923F0789EF94E09093360780933507D3
:103A70008DEE96E1909338078093370710923A07BE
:103A80001092390788EF94E09093300780932F07C6
:103A90008CEE95E1909332078093310710923407B2
:103AA000109233078EEF94E090932A0780932907B2
:103AB00089EF99E090932C0780932B0710922E07A3
:103AC00010922D0785E095E09093240780932307BB
:103AD00083EF92E1909326078093250710922807A1
:103AE000109227078BE095E090931E0780931D07A7
:103AF00089E093E19093200780931F07109222079B
:103B00001092210780E195E09093180780931707A2
:103B100087E093E190931A078093190710921C078E
:103B200010921B0787E195E090931207809311078D
:103B300083E293E190931407809313071092160782
:103B4000109215078DE195E090930C0780930B0779
:103B50008EE19AE090930E0780930D071092100764
:103B600010920F0783E295E0909306078093050774
:103B700081E89EE0909308078093070710920A0758
:103B8000109209078AE295E0909300078093FF0660
:103B90008EED9EE090930207809301071092040738
:103BA000109203078EE295E09093FA068093F9064F
:103BB00081EB9FE09093FC068093FB061092FE063B
:103BC0001092FD0684E395E09093F4068093F3064B
:103BD00085E898E09093F6068093F5061092F80633
:103BE0001092F7068AE395E09093EE068093ED0637
:103BF0008CE898E09093F0068093EF061092F2061E
:103C00001092F10680E495E09093E8068093E70631
:103C100083E998E09093EA068093E9061092EC0617
:103C20001092EB0686E495E09093E2068093E1061D
:103C30008CE290E19093E4068093E3061092E6060E
:103C40001092E5068CE495E09093DC068093DB0609
:103C50008FEA9AE09093DE068093DD061092E006EC
:103C60001092DF0683E595E09093D6068093D50603
:103C700086ED9AE09093D8068093D7061092DA06E4
:103C80001092D9068CE595E09093D0068093CF06EC
:103C90008CE39AE09093D2068093D1061092D406DA
:103CA0001092D30685E695E09093CA068093C906E4
:103CB0008AE998E09093CC068093CB061092CE06CA
:103CC0001092CD064AE953E16EE180EB96E00E9446
:103CD0004E0446E353E16DE187E996E00E944E040D
:103CE0004BED55E162E08EE796E00C944E04A09116
:103CF0007806B0917906ED93FC9381E090E078CD61
:103D0000789484B5826084BD84B5816084BD85B5B6
:103D1000826085BD85B5816085BD80916E008160C2
:103D200080936E0010928100809181008260809368
:103D3000810080918100816080938100809180006A
:103D40008160809380008091B10084608093B10095
:103D50008091B00081608093B0008091910082607A
:103D60008093910080919100816080939100809177
:103D700090008160809390008091A1008260809388
:103D8000A1008091A10081608093A1008091A0009A
:103D900081608093A0008091210182608093210145
:103DA00080912101816080932101809120018160B7
:103DB0008093200180917A00846080937A008091C2
:103DC0007A00826080937A0080917A00816080938B
:103DD0007A0080917A00806880937A001092C10006
:103DE000E091D307F091D40782E08083E091CF0780
:103DF000F091D0071082E091D107F091D2078FECBB
:103E000080831092DB07E091D707F091D80786E016
:103E10008083E091D507F091D6078081806180830F
:103E2000E091D507F091D607808188608083E0918A
:103E3000D507F091D607808180688083E091D5070F
:103E4000F091D60780818F7D808361E08DE00E94B4
:103E5000120460E08DE00E94E40361E08AE00E94C9
:103E6000120460E08AE00E94E403F894109280005B
:103E70001092810040911402509115022CED3BE00C
:103E8000429FC001439F900D529F900D112490932B
:103E900085008093840080918100846080938100FC
:103EA00080916F00816080936F00789431E3E32EFE
:103EB00032E0F32EE70110E000E0FE01E00FF11F19
:103EC000D08061E08D2D0E94120460E08D2D0E9453
:103ED000E4030F5F1F4F0630110579F7269642E085
:103EE000C535D40741F788E9C82E88E0D82E95E279
:103EF000A92E92E0B92E45018601C1E0D80117969E
:103F0000CC93F4018081F2E08F0E911C62E00E945C
:103F10001204D8011C92CF5F0B5E1F4FC73071F7A0
:103F200062E083E00E94120462E08EE10E941204CB
:103F300062E08DE10E94120462E082E00E941204BD
:103F400082E79AE090936B0880936A088DE797E088
:103F50000E94FE0187E797E00E94FE0181E797E05B
:103F60000E94FE018BE697E00E94FE0185E697E045
:103F70000E94FE018FE597E00E94FE0189E597E02F
:103F80000E94FE0183E597E00E94FE018DE497E028
:103F90000E94FE0187E497E00E94FE0181E497E021
:103FA0000E94FE018BE397E00E94FE0185E397E00B
:103FB0000E94FE018FE297E00E94FE0189E297E0F5
:103FC0000E94FE0183E297E00E94FE018DE197E0EE
:103FD0000E94FE018BE097E00E94FE0185E097E0E1
:103FE0000E94FE018FEF96E00E94FE0187E197E0BC
:103FF0000E94FE0181E197E00E94FE0189EF96E0B8
:104000000E94FE0183EF96E00E94FE018DEE96E095
:104010000E94FE0187EE96E00E94FE0181EE96E08E
:104020000E94FE018BED96E00E94FE0185ED96E078
:104030000E94FE018FEC96E00E94FE0189EC96E062
:104040000E94FE0181E080931602809165068D7FBB
:10405000809365060E94AF07809161068F778093F9
:104060006106809162068078809362068AE997E013
:10407000909307028093060280916A008C6080937F
:104080006A00ED9A8091610680788A61809361066A
:10409000C8E9D8E0912C812C10E000E022E0722EDB
:1040A000662463940C8B7B8AF5018081F2E0AF0E6D
:1040B000B11C0E94BB03892B09F03FC0688230917C
:1040C0006106832F881F8827881F20916206922F00
:1040D000990F892B0330110509F41BC108F005C1A4
:1040E0000130110509F40AC10230110509F40FC1AC
:1040F0009091610690689093610686959091620612
:104100009078892B809362064FEF841A940AD70126
:104110008C918E8712968C9112978D8714968C9124
:1041200014978F8711968C911197898B13968C9188
:104130001397888B15968C918A8B0F5F1F4F65960E
:10414000B6E0EB0EF11C0630110509F0ABCF282DBF
:104150002770909161069078882D82958077892EBE
:10416000822A882980936106E0918408F09185086D
:10417000A0918208B091830880918C0890918D085D
:1041800060918A0870918B08209186083091870889
:1041900006E119E0E6014881442329F140918808AD
:1041A00050918908009769F04E5F5F4F50938908DE
:1041B00040938808E417F50720F4A0938808B0938B
:1041C00089084091880850918908EA01D982C882FB
:1041D00001966817790738F42E5F3F4FCB01E2173D
:1041E000F30708F49D01D5E1CD0ED11C0C151D057A
:1041F00089F6309387082093860890938D088093E2
:104200008C080E948414809160068093940882E850
:1042100098E0909391088093900880918C08809307
:10422000970880911602882341F080EB96E00E9467
:10423000E6068EE796E00E94E60687E996E00E9491
:10424000E6068091600890916108892B09F4C6C048
:104250008091600890916108DC01ED91FC910084EF
:10426000F185E02D1995181619060CF0B7C080914C
:10427000600890916108EC01E881F9810284F3857E
:10428000E02D1995AC011816190614F780916C08E9
:1042900090916D082091640830916508821793070A
:1042A0000CF09CC0E0916208F09163089C012F5FC4
:1042B0003F4F30936D0820936C08E80FF91F40833F
:1042C000A0916608B091670890917008FD01E90F10
:1042D000F11D97FDFA952081022E000C330B421739
:1042E0005307D9F010927008B3CF0430110599F03C
:1042F0000530110509F0FCCE806201C0826080FBB0
:1043000037F93093610686952078822BFBCE846046
:10431000F6CF8860F4CF8061F2CF81E0890F80937F
:104320007008FD01E80FF11D87FDFA95808181116C
:104330008FCFFD0101900020E9F73197EA1BFB0BBD
:1043400080916C0890916D088E1B9F0BE091620824
:10435000F0916308E80FF91F10826091680870916E
:1043600069084EE658E080916208909163080E94C7
:1043700038228C01892BC9F0C0917108D091720844
:10438000209709F168817981FB0101900020E9F70C
:10439000AF01461B570BC8010E94F826892B79F400
:1043A000EA81FB8180E698E01995E0916208F0913E
:1043B0006308108210926D0810926C0893CF0C80E5
:1043C000DD81C02DDDCFE0916A08F0916B08309758
:1043D00061F3B80180E698E01995E7CF8091650612
:1043E00084FF0AC081FF0BC080916306882321F0FF
:1043F0000E94AA08109263060E94230312CF8091A4
:1044000064068823C9F30E94AA0810926406F4CFB8
:10441000FC0188279927E89421912032E9F329307B
:1044200010F02E30C8F32B3241F02D3239F468945D
:1044300004C00E945F22820F911D219120532A30D7
:10444000C0F31EF4909581959F4F0895FB01DC0108
:104450000D900020E9F7119705900D920020E1F7EB
:104460000895FB01DC0105900D920020E1F708950D
:10447000FA01A191B081009719F41097E1F0CD01F4
:10448000DC01CD010D90002011F4C00113C0FB012F
:104490002191222319F02015D9F7F3CFFB012191A7
:1044A000201519F41E92119606C02223C1F70D9013
:1044B0000020A1F7D001FA01A193B08308957AE01A
:1044C000979F902D879F802D910D112408950E9414
:1044D000A92208F481E00895E89409C097FB3EF40E
:1044E00090958095709561957F4F8F4F9F4F992341
:1044F000A9F0F92F96E9BB279395F69587957795BF
:104500006795B795F111F8CFFAF4BB0F11F460FF7E
:104510001BC06F5F7F4F8F4F9F4F16C0882311F0D6
:1045200096E911C0772321F09EE8872F762F05C0EA
:10453000662371F096E8862F70E060E02AF09A9585
:10454000660F771F881FDAF7880F9695879597F97A
:104550000895990F0008550FAA0BE0E8FEEF161614
:104560001706E807F907C0F012161306E407F50767
:1045700098F0621B730B840B950B39F40A2661F0DB
:10458000232B242B252B21F408950A2609F4A1407E
:10459000A6958FEF811D811D08950E94E0220C9445
:1045A00051230E94432338F00E944A2320F0952390
:1045B00011F00C943A230C94402311240C9485237D
:1045C0000E94622370F3959FC1F3950F50E0551F31
:1045D000629FF001729FBB27F00DB11D639FAA2758
:1045E000F00DB11DAA1F649F6627B00DA11D661FA7
:1045F000829F2227B00DA11D621F739FB00DA11DC8
:10460000621F839FA00D611D221F749F3327A00D81
:10461000611D231F849F600D211D822F762F6A2F1D
:1046200011249F5750409AF0F1F088234AF0EE0F82
:10463000FF1FBB1F661F771F881F91505040A9F7AF
:104640009E3F510580F00C943A230C9485235F3FE4
:10465000E4F3983ED4F3869577956795B795F795EB
:10466000E7959F5FC1F7FE2B880F911D9695879563
:1046700097F9089597F99F6780E870E060E00895E2
:104680009FEF80EC089500240A941616170618066A
:104690000906089500240A94121613061406050646
:1046A0000895092E0394000C11F4882352F0BB0FD7
:1046B00040F4BF2B11F460FF04C06F5F7F4F8F4F3A
:1046C0009F4F089557FD9058440F551F59F05F3F75
:1046D00071F04795880F97FB991F61F09F3F79F024
:1046E00087950895121613061406551FF2CF4695A6
:1046F000F1DF08C0161617061806991FF1CF869528
:104700007105610508940895E894BB27662777270B
:10471000CB0197F908955058BB27AA270E94A323DD
:104720000C9451230E94432338F00E944A2320F026
:1047300039F49F3F19F426F40C9440230EF4E095CD
:10474000E7FB0C943A23E92F0E94622358F3BA172F
:10475000620773078407950720F079F4A6F50C9497
:1047600084230EF4E0950B2EBA2FA02D0B01B90176
:1047700090010C01CA01A0011124FF27591B99F0D7
:10478000593F50F4503E68F11A16F040A22F232FE3
:10479000342F4427585FF3CF469537952795A79533
:1047A000F0405395C9F77EF41F16BA0B620B730BDA
:1047B000840BBAF09150A1F0FF0FBB1F661F771F4B
:1047C000881FC2F70EC0BA0F621F731F841F48F400
:1047D000879577956795B795F7959E3F08F0B0CF89
:1047E0009395880F08F09927EE0F97958795089570
:1047F0000E940C240C9451230E944A2358F00E94DA
:10480000432340F029F45F3F29F00C943A235111DF
:104810000C9485230C9440230E94622368F399230F
:10482000B1F3552391F3951B550BBB27AA276217AC
:104830007307840738F09F5F5F4F220F331F441FB9
:10484000AA1FA9F335D00E2E3AF0E0E832D09150ED
:104850005040E695001CCAF72BD0FE2F29D0660FDA
:10486000771F881FBB1F261737074807AB07B0E81D
:1048700009F0BB0B802DBF01FF2793585F4F3AF023
:104880009E3F510578F00C943A230C9485235F3FAA
:10489000E4F3983ED4F3869577956795B795F795A9
:1048A0009F5FC9F7880F911D9695879597F9089591
:1048B000E1E0660F771F881FBB1F6217730784072D
:1048C000BA0720F0621B730B840BBA0BEE1F88F73C
:1048D000E09508950E946A2388F09F5798F0B92FB9
:1048E0009927B751B0F0E1F0660F771F881F991F25
:1048F0001AF0BA95C9F714C0B13091F00E94842320
:10490000B1E008950C948423672F782F8827B85F2F
:1049100039F0B93FCCF3869577956795B395D9F77C
:104920003EF490958095709561957F4F8F4F9F4F86
:1049300008950E94A92208F48FEF08950E94A922E9
:10494000880B990B0895991B79E004C0991F96175D
:1049500008F0961B881F7A95C9F780950895A1E203
:104960001A2EAA1BBB1BFD010DC0AA1FBB1FEE1FE9
:10497000FF1FA217B307E407F50720F0A21BB30B34
:10498000E40BF50B661F771F881F991F1A9469F7B0
:1049900060957095809590959B01AC01BD01CF010C
:1049A0000895EE0FFF1F881F8BBF0790F691E02D33
:1049B00019940F931F93CF93DF938230910510F4D6
:1049C00082E090E0E0913109F091320930E020E09E
:1049D000B0E0A0E0309799F42115310509F44AC000
:1049E000281B390B24303105D8F58A819B8161154C
:1049F000710589F1FB0193838283FE0111C040811F
:104A000051810281138148175907E0F0481759076F
:104A100099F4109761F012960C93129713961C93C9
:104A20003296CF01DF91CF911F910F91089500939E
:104A3000310910933209F4CF2115310551F0421795
:104A4000530738F0A901DB019A01BD01DF01F8012C
:104A5000C1CFEF01F9CF9093320980933109CDCFC7
:104A6000FE01E20FF31F81939193225031093983A4
:104A70002883D7CF20912F0930913009232B41F47F
:104A80002091190230911A023093300920932F0996
:104A900020911702309118022115310541F42DB7EC
:104AA0003EB740911B0250911C02241B350BE09134
:104AB0002F09F0913009E217F307A0F42E1B3F0BEA
:104AC0002817390778F0AC014E5F5F4F2417350780
:104AD00048F04E0F5F1F5093300940932F09819388
:104AE00091939FCFF0E0E0E09CCFCF93DF930097CE
:104AF000E9F0FC01329713821282A0913109B09142
:104B00003209ED0130E020E01097A1F420813181DD
:104B1000820F931F20912F093091300928173907F0
:104B200009F061C0F0933009E0932F09DF91CF9134
:104B30000895EA01CE17DF07E8F54A815B819E01FF
:104B400041155105B1F7E901FB83EA834991599178
:104B5000C40FD51FEC17FD0761F480819181029687
:104B6000840F951FE90199838883828193819B83B8
:104B70008A83F0E0E0E012968D919C911397009764
:104B8000B9F52D913C911197CD010296820F931F9B
:104B900020912F09309130092817390739F63097BD
:104BA00051F51092320910923109B0933009A09357
:104BB0002F09BCCFD383C28340815181840F951FBD
:104BC000C817D90761F44E5F5F4F88819981480FFC
:104BD000591F518340838A819B819383828321154E
:104BE000310509F0B0CFF0933209E09331099ECF3F
:104BF000FD01DC01C0CF13821282D7CF4F925F92AA
:104C00006F927F928F929F92AF92BF92CF92DF92DC
:104C1000EF92FF920F931F93CF93DF938C01009736
:104C200099F4CB01DF91CF911F910F91FF90EF90FD
:104C3000DF90CF90BF90AF909F908F907F906F90BC
:104C40005F904F900C94D924FC01E60FF71F9C0154
:104C500022503109E217F30708F4AEC0D901CD9113
:104C6000DC911197C617D70720F1C530D10578F030
:104C7000CE0104978617970750F0C61BD70B2297D3
:104C8000C193D1936D937C93CF010E947525C80188
:104C9000DF91CF911F910F91FF90EF90DF90CF9018
:104CA000BF90AF909F908F907F906F905F904F904C
:104CB00008955B01AC1ABD0A4C018C0E9D1EA0919B
:104CC0003109B0913209512C412CF12CE12C109773
:104CD00031F580912F09909130098815990509F0D7
:104CE0005CC04616570608F058C080911702909194
:104CF0001802009741F48DB79EB740911B02509166
:104D00001C02841B950BE817F90708F055C0F093B7
:104D10003009E0932F09F90171836083B8CF8D9139
:104D20009C91119712966C90129713967C90139702
:104D3000A815B90559F56C0142E0C40ED11CCA147E
:104D4000DB0420F1AC014A195B09DA0112961597D0
:104D500080F06282738251834083D9016D937C938A
:104D6000E114F10471F0D7011396FC93EE931297BE
:104D70008ECF22968C0F9D1FF90191838083F301C2
:104D8000EFCFF0933209E093310981CF48165906ED
:104D900008F42C017D01D3019ACFCB010E94D924C4
:104DA0007C01009749F0AE01B8010E94DF26C801DE
:104DB0000E94752587016BCF10E000E068CFFB01F2
:104DC000DC0102C001900D9241505040D8F7089587
:104DD000FB01DC018D91019080190110D9F3990B31
:104DE0000895FB01DC0101900D920020E1F7089588
:104DF000FB01DC014150504030F08D910190801951
:104E000019F40020B9F7881B990B08950F931F938D
:104E1000CF93DF93CDB7DEB72E970FB6F894DEBFF2
:104E20000FBECDBF0E891F8986E08C831A8309834C
:104E30008FEF9FE79E838D83AE01465E5F4F688D47
:104E4000798DCE0101960E9436272F813885020F79
:104E5000131FF80110822E960FB6F894DEBF0FBE16
:104E6000CDBFDF91CF911F910F9108952F923F9267
:104E70004F925F926F927F928F929F92AF92BF926A
:104E8000CF92DF92EF92FF920F931F93CF93DF9316
:104E900000D000D000D01F921F92CDB7DEB77C01AA
:104EA0003B018A01FC0117821682838181FFDDC1EB
:104EB000CE0101965C01F7019381F30193FD859189
:104EC00093FF81913F01882309F453C1853239F45E
:104ED00093FD859193FF81913F01853229F4B701BC
:104EE00090E00E944E29E7CF912C212C312CFFE13C
:104EF000F31538F08B3211F190F4803209F18332DE
:104F000029F137FC3CC020ED280F2A3050F536FE41
:104F100020C08AE0989E200D1124922E06C08D326A
:104F200091F0803371F7689430F8F30193FD859127
:104F300093FF81913F018111DACF21C0689431F84C
:104F4000689432F8F2CF689433F8EFCF689434F86D
:104F5000ECCFEAE02E9E200D1124222E689435F825
:104F6000E4CF8E3229F436FC04C1689436F8DDCFE4
:104F70008C3619F4689437F8D8CF8836B1F2982F68
:104F80009F7D95549330E0F08336A1F18337C1F1D2
:104F9000833509F063C02801F2E04F0E511CF8017F
:104FA000C080D180692D70E036FC02C06FEF7FEFCA
:104FB000C6010E9438294C01689437F882010AC062
:104FC0000C5F1F4FFFE3F98388248394912C6501C4
:104FD000E89437F833FE2DC0522C8114910471F5FA
:104FE000552009F468CFB70180E290E00E944E2975
:104FF0005A94F6CFF801808189830E5F1F4FE4CF6A
:105000002801F2E04F0E511CF801C080D180692DBB
:1050100070E036FC02C06FEF7FEFC6010E944329AB
:105020004C018201D5CFB70180E290E00E944E2969
:105030002A942814190409F0B0F7CECFF60137FCF2
:10504000859137FE81916F01B70190E00E944E2952
:1050500051105A94F1E08F1A9108BFCF843619F09D
:10506000893609F077C0F80137FE6BC06081718125
:10507000828193810C5F1F4FF32DFF763F2E97FFA8
:1050800009C090958095709561957F4F8F4F9F4F88
:10509000689437F82AE030E0A5010E947E29C82EE6
:1050A000CA188C2C432C36FE0CC0E89440F8C91466
:1050B00040F434FE05C032FC03C0F32DFE7E4F2EBB
:1050C000892C44FEAAC0FE01EC0DF11D80818033C5
:1050D00009F09CC0242D297E422E842D8870582EE4
:1050E00043FCAAC040FEA4C09C2C821418F42C0CD3
:1050F000922C981844FEA6C0B70180E390E00E946D
:105100004E2942FE09C088E790E041FE02C088E5D2
:1051100090E0B7010E944E29C91408F49FC0CA94B8
:10512000D12C9FEFC91AD90ACA0CDB1CF601829157
:105130006F01B70190E00E944E29AC14BD04B1F795
:105140004FCF60817181072E000C880B990B0E5F89
:105150001F4F92CFD32CE894D4F82AE030E0853763
:10516000E1F1232D297FD22E8F36A9F1F0F4883575
:1051700051F1F701868197812B960FB6F894DEBF27
:105180000FBECDBFDF91CF911F910F91FF90EF9098
:10519000DF90CF90BF90AF909F908F907F906F9057
:1051A0005F904F903F902F900895803749F0883757
:1051B00001F7D4FE02C06894D2F820E130E00DC0BF
:1051C0006894D4F8F6CF34FE03C0822F8660D82EC0
:1051D00020E132E002C028E030E0F801D7FE0FC045
:1051E00060817181828193810C5F1F4FA5010E94B4
:1051F0007E29C82ECA183D2CE89437F852CF60811A
:10520000718190E080E00E5F1F4FF0CF42FC02C042
:10521000839463CF8394839460CF842D867809F43C
:105220005CCFF6CFB70180E290E00E944E298394D4
:105230008214C0F3512C5ECF522C5818821408F4FB
:1052400059CFF8CF842D867809F466CF8BE241FEE2
:1052500080E247FC8DE2B70190E05CCFB70180E3CC
:1052600090E00E944E299A9457CF8FEF9FEF84CF02
:10527000FC010590615070400110D8F78095909521
:105280008E0F9F1F0895FC01615070400190011026
:10529000D8F7809590958E0F9F1F08950F931F93B9
:1052A000CF93DF93182F092FEB018B8181FD09C06C
:1052B0001FEF0FEF812F902FDF91CF911F910F9153
:1052C000089582FF14C02E813F818C819D81281713
:1052D00039073CF4E881F981CF01019699838883ED
:1052E00010838E819F8101969F838E83E3CFE88513
:1052F000F985812F1995892BA1F3DACFFA01AA2715
:10530000283051F1203181F1E8946F936E7F6E5F08
:105310007F4F8F4F9F4FAF4FB1E03ED0B4E03CD0B6
:10532000670F781F891F9A1FA11D680F791F8A1F99
:10533000911DA11D6A0F711D811D911DA11D20D000
:1053400009F468943F912AE0269F11243019305DBA
:105350003193DEF6CF010895462F4770405D4193AB
:10536000B3E00FD0C9F7F6CF462F4F70405D4A33F8
:1053700018F0495D31FD4052419302D0A9F7EACFC0
:10538000B4E0A6959795879577956795BA95C9F7EF
:1053900000976105710508959B01AC010A2E0694E2
:1053A0005795479537952795BA95C9F7620F731F9B
:1053B000841F951FA01D0895F894FFCF0000803F23
:1053C0000C050C050C050C050C050C050C050C0555
:1053D000E80301000033098000000040001400547D
:1053E000000A0012001C0026002E003300060508EB
:1053F000040709110C130F0E1018171A16191B2287
:1054000021242023252A272C28292B322D342F3004
:105410003100000000B60220024D0203037E025C50
:1054200002700200000000CC059F05E30675059898
:105430000585057605000000007E142002E306E2E3
:10544000060D0A004754534551204F4B0053545307
:105450004551204F4B00524C534551204F4B007249
:1054600065736574696E672E2E2E0044454C534556
:1054700051204552524F52004C41535420534551F4
:105480002052454D4F564544005354423A205B202C
:1054900000205D00534C41564553203A2000556E84
:1054A0007265636F676E697A656420636F6D6D61A5
:1054B0006E64205B00444C59202564206D730054B9
:1054C0004F54414C20534C415645533A20256400DB
:1054D000534C5620004F4E004F46460054494D4510
:1054E00052204F4B004D41582053455120524541C9
:1054F0004348454400534C3100434831004348324F
:1055000000534C3200534C3300534C3400534C3551
:1055100000534C36005700414444534551204F4BF3
:1055200000454454534551204F4B00504F53004EBB
:10553000454700545247504F4C204552524F52005D
:10554000545247504F4C20006F6666006F6E004704
:105550005244204F4B004552524F5220004C44536E
:105560004551204F4B0044454C4159204F4B00457D
:105570004E41204F4B00434C4541522020202000FB
:10558000434C5320444F4E45004C4F430047544C2E
:10559000204F4B0052454D0052454D204F4B004986
:1055A0004E5400455854004552524F5220545249CF
:1055B0004747455200545247204F4B0053544152E5
:1055C0005445440053544152544544202020202047
:1055D000200053544F505045440053544F505045B1
:1055E00044202020202020005041555345440050A5
:1055F000415553454420202020202020002532649E
:105600003A2025325820253258202532580053455B
:10561000513A202532642020202020005265616408
:105620007900536C617665733A0052535420444FAD
:105630004E45005245534554202020202000544917
:105640004D455220006E616E00696E66006F766691
:1056500000534551204E4F20455252005345512092
:105660003C25643E3A2062313A25582062323A2580
:10567000582062333A255800454E41005354415456
:10568000002A49444E3F002A525354002A434C53A7
:105690000047544C005452470054494D4552005461
:1056A000494D45523F0041444453455100454454FF
:1056B000534551004E5345513F0044454C534551CD
:1056C0000053544152540053544F500052455355C7
:1056D0004D45005041555345002A5354423F005414
:1056E0005247504F4C00475244004C4453455100E0
:1056F000475453455100535453455100524C534560
:10570000510044454C41590044454C41593F004EDD
:10571000534C415645533F0057534C415645533F18
:0857200000726573657400005E
:020000040003F7
:10E000000D9489F10D94B2F10D94B2F10D94B2F129
:10E010000D94B2F10D94B2F10D94B2F10D94B2F1F0
:10E020000D94B2F10D94B2F10D94B2F10D94B2F1E0
:10E030000D94B2F10D94B2F10D94B2F10D94B2F1D0
:10E040000D94B2F10D94B2F10D94B2F10D94B2F1C0
:10E050000D94B2F10D94B2F10D94B2F10D94B2F1B0
:10E060000D94B2F10D94B2F10D94B2F10D94B2F1A0
:10E070000D94B2F10D94B2F10D94B2F10D94B2F190
:10E080000D94B2F10D94B2F10D94B2F10D94B2F180
:10E090000D94B2F10D94B2F10D94B2F10D94B2F170
:10E0A0000D94B2F10D94B2F10D94B2F10D94B2F160
:10E0B0000D94B2F10D94B2F10D94B2F10D94B2F150
:10E0C0000D94B2F10D94B2F10D94B2F10D94B2F140
:10E0D0000D94B2F10D94B2F10D94B2F10D94B2F130
:10E0E0000D94B2F141546D656761323536300041AF
:10E0F000726475696E6F206578706C6F72657220DE
:10E1000073746B3530305632206279204D4C530099
:10E11000426F6F746C6F616465723E004875683F52
:10E1200000436F6D70696C6564206F6E203D200048
:10E130004350552054797065202020203D20005FF9
:10E140005F4156525F415243485F5F3D2000415658
:10E1500052204C696243205665723D20004743437C
:10E160002056657273696F6E203D20004350552024
:10E1700049442020202020203D20004C6F7720663D
:10E18000757365202020203D20004869676820665F
:10E190007573652020203D200045787420667573D6
:10E1A00065202020203D20004C6F636B2066757336
:10E1B000652020203D20004D617220203720323024
:10E1C000313300312E362E3800342E332E350056A2
:10E1D00023202020414444522020206F7020636F70
:10E1E00064652020202020696E73747275637469E1
:10E1F0006F6E2061646472202020496E74657272B3
:10E20000757074006E6F20766563746F7200726A49
:10E210006D702020006A6D70200057686174207056
:10E220006F72743A00506F7274206E6F7420737541
:10E2300070706F72746564004D7573742062652030
:10E2400061206C6574746572002000577269747483
:10E25000696E672045450052656164696E672045B7
:10E26000450045452065727220636E743D00504F35
:10E27000525400303D5A65726F2061646472003FF1
:10E280003D43505520737461747300403D454550C3
:10E29000524F4D207465737400423D426C696E6B41
:10E2A000204C454400453D44756D70204545505215
:10E2B0004F4D00463D44756D7020464C415348001B
:10E2C000483D48656C70004C3D4C69737420492F83
:10E2D0004F20506F72747300513D51756974005234
:10E2E0003D44756D702052414D00563D73686F7707
:10E2F00020696E7465727275707420566563746FF0
:10E30000727300593D506F727420626C696E6B00BD
:10E310002A0011241FBECFEFD1E2DEBFCDBF01E046
:10E320000CBF12E0A0E0B2E0EEE1FDEF03E00BBFB6
:10E3300002C007900D92A030B107D9F712E0A0E01B
:10E34000B2E001C01D92AE30B107E1F70F9460F367
:10E350000D948DFE01E20EBF0FEF0DBF11241FBE05
:10E360000D9460F30D9400F020E030E040ED57E0B4
:10E3700005C0FA013197F1F72F5F3F4F2817390792
:10E38000C0F308959C01260F311DC901A0E0B0E043
:10E390002F5F3F4FABBFFC018791882361F08093D3
:10E3A000C6008091C00086FFFCCF8091C0008064D1
